:20018200E582900007F0E0FF900001F0900002E0FBA3E0FCA3E0FDA3E0FE900006E0FA9022
:2001A2000113EBF0ECA3F0EDA3F0EEA3F09001177401F0900118E4F0900119EAF08F8202AD
:2001C2002892AF83E582900008F0EFA3F0900008E0FEA3E0FFBE0A29BF0026900001E0FF82
:2001E20090000A740DF0900125740AF07400A3F0E4A3F090012804F0900129F08F82122BAB
:2002020086900008E0FEA3E0FF8E05900001E0FC90000BEDF0900125740BF07400A3F0E4D6
:20022200A3F090012804F0900129F08C82C007C006122B86D006D0078E828F8322900001F2
:20024200E0FF90000CE4F090011F740CF07400A3F0E4A3F090012204F0900123F08F821241
:0E0262002B1B90000CE0FF7E008F828E83220B
:20585E00000000000081811881810007000700147F147F14242A7F2A12231308646236493A
:20587E005522500005030000001C2241000041221C0014083E081408083E080800503000E9
:20589E00000808080808006060000020100804023E5149453E00427F4000426151494621C4
:2058BE0041454B311814127F1027454545393C4A4949300171090503364949493606494922
:2058DE00291E003636000000563600000814224100141414141400412214080201510906A6
:2058FE00324979413E7E1111117E7F494949363E414141227F4141221C7F494949417F09D3
:20591E000909013E4149497A7F0808087F00417F41002040413F017F081422417F40404096
:20593E00407F020C027F7F0408107F3E4141413E7F090909063E4151215E7F09192946465D
:20595E004949493101017F01013F4040403F1F2040201F3F4038403F6314081463070870F3
:20597E0008076151494543007F41410002040810200041417F0004020102044040404040EA
:20599E00000102040020545454787F484444383844444420384444487F3854545418087E4A
:2059BE000901020C5252523E7F0804047800447D40002040443D007F1028440000417F4099
:2059DE00007C041804787C0804047838444444387C14141408081414147C7C0804040848F9
:2059FE0054545420043F4440203C4040207C1C2040201C3C4030403C44281028440C5050BA
:205A1E00503C4464544C44000836410000007F00000041360800100808100800000000009B
:20027000E582900030F090002EE0FFBF0300400590002EE4F0900030E0FF900031F0EF24BE
:20029000F75006EF14900031F0900030E0FF24F55006900031E014F0EF24F350069000317D
:2002B000E014F0900030E0FFBF0800500B90002FE0FF900031E02FF090002EE075F00CA478
:2002D000241EFE745C35F0FF900031E02EF582E43FF583E493F58222E582900033F0E0FFF0
:2002F000C4540FFE53070FBE08005005BF080040047D0080027D01900034EDF0E0604B9001
:200310000035EEF0900036EFF09000377401F0900032E0900038F0900039E4F090003AF038
:2003300090003B7403F090003C7401F090003DE4F090003EF090003FF0900040F09000419B
:20035000F090003575F000121844900034E0F58222E582900043F0900042E0FFBF030040EB
:2003700005900042E4F0900043E0FFBF0800502C8F068EF005F07403800225E0D5F0FBF413
:20039000FE90FEB2E05206900042E08FF005F0800225E0D5F0FB90FEB24EF022EF24F8902F
:2003B0000043F0E0FFFE8EF005F07403800225E0D5F0FBF4FE90FEB6E05206900042E08F3D
:2003D000F005F0800225E0D5F0FB90FEB64EF022E582900045F0E0FFBF0800501B9000442C
:2003F000E02FFE8EF005F07401800225E0D5F0FBFE90FEB1E04EF022EF24F8F5F005F074DB
:2004100001800225E0D5F0FBFF90FEB5E04FF022E582900048F0900049E4F0900047E02549
:20043000E0FF430701900048E0FEBE08005058900046E02E25E0FD90004AF08D04EC24F815
:20045000500DED24F890004AF09000497401F090004AE0FDFC8CF005F07403800225E0D527
:20047000F0FBF4FC8DF005F0EF800225E0D5F0FBFD900049E0600890FECDE05C4DF0229045
:20049000FECCE05C4DF022EE24F825E0FE90004BF08E05ED24F8500DEE24F890004BF090B1
:2004B00000497401F090004BE0FEFD8DF005F07403800225E0D5F0FBF4FD8EF005F0EF80C5
:2004D0000225E0D5F0FBFF900049E0600890FEEDE05D4FF02290FEECE05D4FF022E58290FD
:2004F000004FF090004DE0FFBF016E90004FE0FFBF0800503290004CE02FFEFD8DF005F064
:200510007401800225E0D5F0FBFD90FEB3E04DF090004EE08EF005F0800225E0D5F0FBFE3E
:2005300090FEDFE04EF022EF24F8FF8FF005F07401800225E0D5F0FBFE90FEB7E0FD4EF066
:2005500090004EE0FE8FF005F0EE800225E0D5F0FBFF90FEFFE0FE4FF022E582900050F024
:20057000E0FF24F1500122EF240A83F582EF241383F583E473A3EAACEAB5EABEEAC7EAD08A
:20059000EAD9EAE205050505050505050505050505050590FECCE053E0F0F02290FECCE0C8
:2005B00053E00FF02290FECDE053E0F0F02290FECDE053E00FF02290FEECE053E0F0F02249
:2005D00090FEECE053E00FF02290FEEDE053E0F0F02290FEEDE053E00FF022E582900057D0
:2005F000F0900052E0FFBF02069000527401F0900058E4F0900057E0FF24F9400790005660
:20061000E030E078900057E0FF900051E090002EF090002FE4F08F82C007120270AE82907E
:200630000052E0900032F08E821202E8E582D007604A900044E4F08F82C0071203E0D00786
:20065000900053E0FE900046E4F0900047EEF08F82C007120420D007900054E0FE900055DE
:20067000E0FD90004CE4F090004DEEF090004EEDF08F821204ED9000587401F0900057E03F
:20069000FF24F95003020716900056E030E177900051E090002EF090002F7401F08F82C00A
:2006B00007120270AE82900052E0900032F08E821202E8E582D007604D9000447401F08F3C
:2006D00082C0071203E0D007900053E0FE9000467401F0900047EEF08F82C007120420D066
:2006F00007900054E0FE900055E0FD90004C7401F090004DEEF090004EEDF08F821204ED94
:200710009000587401F0900058E06012900057E0FF900051E0900042F08F8202036122E57B
:2007300082900069F090006AE4F0A3F0900061E0FFBF0103EF8001E4FE7063BF0202805E84
:20075000BF03028059BF0718900059E0FAA3E0FBA3E0FCA3E0FD90006AEAF0EBA3F0803EBE
:20077000900059E0FAA3E0FBA3E0FCA3E0FD9005DCEAF0EBA3F0ECA3F0EDA3F0900EC0758E
:20079000F0167402C007C006124ADEAA82AB83ACF0FDD006D00790006AEAF0EBA3F0900084
:2007B0006AE0FCA3E0FD90006AE0F5F0A3E045F0600D1CBCFF011D90006AECF0EDA3F0EE46
:2007D000700DBF02028008BF03028003BF071890005DE0FBA3E0FCA3E0FDA3E0FE90006CD8
:2007F000EBF0ECA3F08046C00790005DE0FBA3E0FCA3E0FDA3E0FE900059E0F8A3E0F9A3DA
:20081000E0FAA3E0FF9005DCEBF0ECA3F0EDA3F0EEA3F0888289838AF0EF124ADEAC82AD0C
:2008300083AEF090006CECF0EDA3F0D007900066E0FEBE02028008BE04028003BE0615908A
:20085000006CE0FCA3E0C313CC13CCFD90006CECF0EDA3F090006CE0FCA3E0FD90006CE0B3
:20087000F5F0A3E045F0600D1CBCFF011D90006CECF0EDA3F0900062E0C454F0420790005E
:2008900064E0035480FD900065E0C40354F84205EEC454F04205900067E0FEFCEC2C420594
:2008B000900068E0FCBC01067B207C0080047B007C00BE0103EE8001E470057A01FE800478
:2008D0007A007E00EA4BFE900069E0FC6007BC0102803F807890006AE0FBA3E090FED0F085
:2008F00090FED1EBF090006CE0FBA3E0FC90FED2F090FED3EBF090FEC2EFF0900063E0903A
:20091000FED4F090FEC0EDF090FEC4E054DE4EF0803B90006AE0FBA3E090FEF0F090FEF138
:20093000EBF090006CE0FBA3E0FC90FEF2F090FEF3EBF090FEE2EFF0900063E090FEF4F016
:2009500090FEE0EDF090FEE4E054DE4EF090006CE0FEA3E0FF0EBE00010F8E828F8322E519
:200970008290006EF0E0FF6005BF0113800990FEDDE043E080F02290FEFDE043E080F02237
:20099000E58290006FF0E0FF6005BF0113800990FEC0E043E001F02290FEE0E043E001F08B
:2009B00022E582900070F0E0FFBF08005019EFC31304F5F005F07401800225E0D5F0FBFE42
:2009D00090FEC4E04EF0227E00EF24F8FFEE34FFA2E713CF13CFEF04F5F005F074018002BB
:2009F00025E0D5F0FBFF90FEE4E04FF022E582900076F0E0FFF582C00712056AD00790000E
:200A100074E0FDA3E0FE900078EDF0EEA3F08F82120AF4900073E0FFBF01067E087F008040
:200A3000047E007F00900071E0FFBF010990007774604EF0800790007774704EF09000762D
:200A5000E0FF24F15003020AD3EF240A83F582EF241383F583E47385D38FD399D3A3D3AD88
:200A7000D3B7D3C1D3CB0A0A0A0A0A0A0A0A0A0A0A0A0A0A0A900077E090FEC8F080449093
:200A90000077E090FEC9F0803A900077E090FECAF08030900077E090FECBF0802690007732
:200AB000E090FEE8F0801C900077E090FEE9F08012900077E090FEEAF08008900077E09016
:200AD000FEEBF0EFC3132431F582E43406F5837401F0900072E0FFBF0109900076E0F5829A
:200AF0000209B122E58290007AF0900078E0FEA3E0FFFD90007AE0FF24F1500122EF240AB4
:200B100083F582EF241383F583E473399044904F905A90659070907B90860B0B0B0B0B0B25
:200B30000B0B0B0B0B0B0B0B0B90FED5EDF090FED6EEF02290FED7EDF090FED8EEF0229066
:200B5000FED9EDF090FEDAEEF02290FEDBEDF090FEDCEEF02290FEF5EDF090FEF6EEF022D5
:200B700090FEF7EDF090FEF8EEF02290FEF9EDF090FEFAEEF02290FEFBEDF090FEFCEEF0C3
:200B900022E58290007FF0E0FF90007BE0FE900042F08F82C007C006120361D006D00790E2
:200BB000002EEEF090002FE4F08F82C007120270AE829000327402F08E821202E8D007905F
:200BD000007EE0C454F0FE90007DE04206EFFD24F15003020C48ED240A83F582ED24138306
:200BF000F583E47312481948204827482E4835483C48430C0C0C0C0C0C0C0C0C0C0C0C0C2E
:200C10000C0C90FEC8EEF0802F90FEC9EEF0802890FECAEEF0802190FECBEEF0801A90FEB6
:200C3000E8EEF0801390FEE9EEF0800C90FEEAEEF0800590FEEBEEF090007FE0FF90007C3E
:200C5000E0FE900046E4F0900047EEF08F82020420E582900083F0E0FF7004FDFE80047D57
:200C7000087E008D060E0E900059E4F0A3F0A3F0A3F090005D14F0A3F0E4A3F0A3F090009B
:200C9000617403F0900062E4F0900063F0900064F0900065F0900066F090006704F09000A9
:200CB00068E4F08F82C007C006C00512072FD005900080E0FC900081E0FB900082E0FA9014
:200CD000007BECF090007CEBF090007D7401F090007EEAF08D82C005C004C003C002120B32
:200CF00091D002D003D004D005D00690007BECF090007CEBF090007D7401F090007EEAF007
:200D10008E82C006C005120B91D005D006EDC3132431F582E43406F5837402F0EEC313245C
:200D300031F582E43406F5837402F08D821209B1D0078F82020990E582900089F0E0FF90C2
:200D50000084E0FE900085E0FD900086E0FC900087E0FB90007BEEF090007CEDF090007D6C
:200D7000ECF090007EEBF08F82C007120B91D007EFC313FE2431FCE43406FD900088E044D6
:200D9000038C828D83F0EE75F004A4240EF582740035F0F583E4F0A3F0A3F0A3F08F8202DD
:200DB00009B1C021C0E0C0F0C082C083C007C006C005C004C003C002C001C000C0D075D0C2
:200DD0000090008A74FFF090008BF090FEC5E030E10D90FEC5E053E0FDF090008AE4F09059
:200DF000FEC5E030E20E90FEC5E053E0FBF090008A7402F090FEC5E030E30E90FEC5E05375
:200E1000E0F7F090008A7404F090FEC5E030E40E90FEC5E053E0EFF090008A7406F090FECD
:200E3000C5E030E60E90FEC5E053E0BFF090008B7401F090FEC5E030E50E90FEC5E053E088
:200E5000DFF090008B7402F090FEC5E030E02390FEC5E053E0FEF090008B7403F090063927
:200E7000E0FEA3E0FF0EBE00010F900639EEF0EFA3F090FEC5E030E70D90FEC5E053E07FBB
:200E9000F090008BE4F090008AE0FFBFFF0302103CEFC313FE2431F582E43406F583E0FD59
:200EB000BD000302103CBD01028005BD022B800F90012EE4F0A3F08F82122C4202103C90C1
:200ED000FEC0E0FC5304107B0090012EECF0EBA3F08F82122C4202103C90008CE4F0A3F00B
:200EF000BF0002800FBF0202801DBF0402802BBF064C803990FED5E090008DF090FED6E064
:200F1000FF90008CF0803790FED7E090008DF090FED8E0FF90008CF0802490FED9E09000E1
:200F30008DF090FEDAE0FF90008CF0801190FEDBE090008DF090FEDCE0FF90008CF0900005
:200F50008EEEF0ED30E43390008AE0FF600FBF02028012BF04028014BF061F801790008E32
:200F70007401F0801590008EE4F0800E90008E7403F0800690008E7402F0900639E0FDA309
:200F9000E0FF900091EDF0EFA3F090008CE0FDA3E0FF90008FEDF0EFA3F090008FE0F508ED
:200FB000A3E0F509A3E0F50AA3E0F50B90008EE075F004A4240EF582740035F0F583E0F8FE
:200FD000A3E0F9A3E0FAA3E0FFE508C398F8E50999F9E50A9AFAE50B9FFF900093E8F0E9D1
:200FF000A3F0EAA3F0EFA3F0EE75F004A4240EFE740035F0FF90008FE0FAA3E0FBA3E0FC96
:20101000A3E0FD8E828F83EAF0EBA3F0ECA3F0EDA3F090008AE0FF900095E0FDA3E0FE90BB
:20103000012EEDF0EEA3F08F82122C4290008BE0FFBFFF02800B90012DEFF0758200122C6B
:2010500041D0D0D000D001D002D003D004D005D006D007D083D082D0F0D0E0D02132C021EA
:20107000C0E0C0F0C082C083C007C006C005C004C003C002C001C000C0D075D00090009773
:2010900074FFF0900098F090FEE5E030E10E90FEE5E053E0FDF09000977408F090FEE5E0FA
:2010B00030E20E90FEE5E053E0FBF0900097740AF090FEE5E030E30E90FEE5E053E0F7F019
:2010D000900097740CF090FEE5E030E40E90FEE5E053E0EFF0900097740EF090FEE5E03073
:2010F000E60E90FEE5E053E0BFF09000987401F090FEE5E030E50E90FEE5E053E0DFF090CF
:2011100000987402F090FEE5E030E02390FEE5E053E0FEF09000987403F090063BE0FEA3E6
:20113000E0FF0EBE00010F90063BEEF0EFA3F090FEE5E030E70D90FEE5E053E07FF09000B7
:2011500098E4F0900097E0FFBFFF030212FDEFC313FE2431F582E43406F583E0FDBD000379
:201170000212FDBD01028005BD022B800F90012EE4F0A3F08F82122C420212FD90FEE0E07A
:20119000FC5304107B0090012EECF0EBA3F08F82122C420212FD900099E4F0A3F0BF08024D
:2011B000800FBF0A02801DBF0C02802BBF0E4C803990FEF5E090009AF090FEF6E0FF90006E
:2011D00099F0803790FEF7E090009AF090FEF8E0FF900099F0802490FEF9E090009AF0900D
:2011F000FEFAE0FF900099F0801190FEFBE090009AF090FEFCE0FF900099F090009BEEF050
:20121000ED30E437900097E0FFBF0802800FBF0A028012BF0C028015BF0E20801890009BB9
:201230007405F0801690009B7404F0800E90009B7407F0800690009B7406F090063BE0FD1F
:20125000A3E0FF90009EEDF0EFA3F0900099E0FDA3E0FF90009CEDF0EFA3F090009CE0F55B
:201270000CA3E0F50DA3E0F50EA3E0F50F90009BE075F004A4240EF582740035F0F583E00E
:20129000F8A3E0F9A3E0FAA3E0FFE50CC398F8E50D99F9E50E9AFAE50F9FFF9000A0E8F0E2
:2012B000E9A3F0EAA3F0EFA3F0EE75F004A4240EFE740035F0FF90009CE0FAA3E0FBA3E0D9
:2012D000FCA3E0FD8E828F83EAF0EBA3F0ECA3F0EDA3F0900097E0FF9000A2E0FDA3E0FE73
:2012F00090012EEDF0EEA3F08F82122C42900098E0FFBFFF02800B90012DEFF07582011237
:1F1310002C41D0D0D000D001D002D003D004D005D006D007D083D082D0F0D0E0D02132DD
:205A3E00000000000081811881810007000700147F147F14242A7F2A122313086462364958
:205A5E005522500005030000001C2241000041221C0014083E081408083E08080050300007
:205A7E00000808080808006060000020100804023E5149453E00427F4000426151494621E2
:205A9E0041454B311814127F1027454545393C4A4949300171090503364949493606494940
:205ABE00291E003636000000563600000814224100141414141400412214080201510906C4
:205ADE00324979413E7E1111117E7F494949363E414141227F4141221C7F494949417F09F1
:205AFE000909013E4149497A7F0808087F00417F41002040413F017F081422417F404040B5
:205B1E00407F020C027F7F0408107F3E4141413E7F090909063E4151215E7F09192946467B
:205B3E004949493101017F01013F4040403F1F2040201F3F4038403F631408146307087011
:205B5E0008076151494543007F41410002040810200041417F000402010204404040404008
:205B7E00000102040020545454787F484444383844444420384444487F3854545418087E68
:205B9E000901020C5252523E7F0804047800447D40002040443D007F1028440000417F40B7
:205BBE00007C041804787C0804047838444444387C14141408081414147C7C080404084817
:205BDE0054545420043F4440203C4040207C1C2040201C3C4030403C44281028440C5050D8
:205BFE00503C4464544C44000836410000007F0000004136080010080810080000000000BA
:205C1E00101154131415161720212223202122232425262717543334FFFFFFFFFFFFFFFF1C
:1C5C3E0000010203FFFFFFFFFFFF3433FFFFFFFF3232410673FFFFFF3535999930
:0C7B8B00000000000000000000000000EE
:20132F00E5829000ACF09000ADE4F09000AE04F09000A5E0FCA3E0FDA3E0FEA3E0FFEC4DFB
:20134F004E4F70099000AD7401F00215289000AFE4F0A3F09000ACE0FB6003BB0158C3E4AC
:20136F009CE49D74019EE49F40030214E9C3E49CE49D740C9EE49F40349000AEE4F09005E9
:20138F00DC740CF0E4A3F0A3F0A3F08C828D838EF0EF124ADEA882A983AAF0FB9000A5E888
:2013AF00F0E9A3F0EAA3F0EBA3F00214E99000AD7402F00214E9C3E49CE49D74019EE49FBC
:2013CF0040030214E98E008F019000AFE8F0E9A3F0C3E498740199505D9000AEE4F090056A
:2013EF00CC740CF0E4A3F088828983C007C006C005C004124911AA82AB83D004D005D006BA
:20140F00D0079000AFEAF0EBA3F09005DC740CF0E4A3F0A3F0A3F08C828D838EF0EF124AEA
:20142F00DEAC82AD83AEF0FF9000A5ECF0EDA3F0EEA3F0EFA3F09000AFE0F510A3E0F51183
:20144F009000A5E0FAA3E0FBA3E0FCA3E0FD9005D3E510F0E511A3F0E4A3F0A3F08A828B7A
:20146F00838CF0EDC005C004C003C00212499EA882A983AEF0FFD002D003D004D005E849F8
:20148F004E4F600D9000AF74012510F0E43511A3F09000AFE0FEA3E0FF9005DCEEF0EFA31D
:2014AF00F0E4A3F0A3F08A828B838CF0EDC007C006124ADEAA82AB83ACF0FDD006D00790A9
:2014CF0000A5EAF0EBA3F0ECA3F0EDA3F01EBEFF011F9000AFEEF0EFA3F09000ACE0FFBF8D
:2014EF000202800ABF03028014BF042D801E9000AFE0FEA3E0FF90FEA2EEF0801C9000AFE1
:20150F00E0FEA3E0FF90FEA3EEF0800D9000AFE0FEA3E0FF90FEA4EEF09000ADE06003028F
:20152F0016E19000A5E0FCA3E0FDA3E0A3E0C3E49CFEE49DFF9000ACE0FD24FB50030216AA
:20154F00E1ED2D2D901557730215660215BA02161302165902169E747F558EFD9000AEE054
:20156F00035480FC74805C4DF58E5389F074F75589FD9000ABE0C40354F8FC74085C4DF513
:20158F00899000A9E0FDBD0105438F018003538FFE8E8A8F8C9000AAE0FDBD010543A802AA
:2015AF00800353A8FD4388100216E153890F9000A9E0FDBD0105438F028003538FFD8E8BBA
:2015CF008F8D747F5589FD9000ABE0035480FC74805C4DF5899000AEE06009AC8E7D004388
:2015EF000440800874BF558EFBFC7D008C8E9000AAE0FDBD010543A808800353A8F743885F
:20160F00400216E1538EF79000A9E0FDBD0105438F048003538FFB8ED78FD69000AEE06053
:20162F0009AC8E7D00430404800874FB558EFBFC7D008C8E9000AAE0FDBD010543AF0480D8
:20164F000353AFFB438E100216E153D1FB9000A9E0FDBD010543D101800353D1FE9000AEB1
:20166F00E06009ACD17D00430402800874FD55D1FBFC7D008CD18ED58FD49000AAE0FDBD45
:20168F00010543AF20800353AFDF43D108804353D1BF9000A9E0FDBD010543D1108003532A
:2016AF00D1EF9000AEE06009ACD17D00430420800874DF55D1FBFC7D008CD18ED38FD2904F
:2016CF0000AAE0FFBF010543AF40800353AFBF43D1809000ADE0F58222E5829000B1F090C5
:2016EF0000B2E4F0A3F09000B1E0FF24FB4068EF2F90170473800880188028803880485304
:20170F0088EF9000B2E58AF0E58CA3F0538FFE80465388BF9000B2E58BF0E58DA3F0538FD5
:20172F00FD8034538EEF9000B2E5D7F0E5D6A3F0538FFB802253D1F79000B2E5D5F0E5D49E
:20174F00A3F053D1FE801053D17F9000B2E5D3F0E5D2A3F053D1EF9000B2E0FEA3E08E8298
:03176F00F58322DD
:205C5A00000000000081811881810007000700147F147F14242A7F2A12231308646236493A
:205C7A005522500005030000001C2241000041221C0014083E081408083E080800503000E9
:205C9A00000808080808006060000020100804023E5149453E00427F4000426151494621C4
:205CBA0041454B311814127F1027454545393C4A4949300171090503364949493606494922
:205CDA00291E003636000000563600000814224100141414141400412214080201510906A6
:205CFA00324979413E7E1111117E7F494949363E414141227F4141221C7F494949417F09D3
:205D1A000909013E4149497A7F0808087F00417F41002040413F017F081422417F40404096
:205D3A00407F020C027F7F0408107F3E4141413E7F090909063E4151215E7F09192946465D
:205D5A004949493101017F01013F4040403F1F2040201F3F4038403F6314081463070870F3
:205D7A0008076151494543007F41410002040810200041417F0004020102044040404040EA
:205D9A00000102040020545454787F484444383844444420384444487F3854545418087E4A
:205DBA000901020C5252523E7F0804047800447D40002040443D007F1028440000417F4099
:205DDA00007C041804787C0804047838444444387C14141408081414147C7C0804040848F9
:205DFA0054545420043F4440203C4040207C1C2040201C3C4030403C44281028440C5050BA
:205E1A00503C4464544C44000836410000007F00000041360800100808100800000000009B
:20177200E5829000B9F09000B5E060249000B6E0FDA3E0FEA3E0FF740B2DFDE43EFE8D8210
:201792008E838FF012583EFD9000B9E04DFF80229000B6E0FCA3E0FDA3E0FE740C2CFCE43C
:2017B2003DFD8C828D838EF012583EFC9000B9E05CFF8F8222AFF0AE83E5829000BAF0EE87
:2017D200A3F0EFA3F09000BAE0FDA3E0FEA3E0FF74032DFDE43EFE8D828E838FF012583EB0
:2017F200FF600EBF01028009BF030280047F0080027F018F8222AFF0AE83E5829000BDF0AF
:20181200EEA3F0EFA3F09000BDE0FDA3E0FEA3E0FF74032DFDE43EFE8D828E838FF01258BC
:201832003EFF6009BF020280047F0080027F018F8222AFF0AE83E5829000C0F0EEA3F0EF0E
:20185200A3F09000C3E4F09000C0E0FDA3E0FEA3E0FF74022DFAE43EFB8F048A828B838C99
:20187200F012583EFCEC60109000C3E025E0FBF0E043E001F01C80ED740B2DF512E43EF5FC
:20189200138F1474012DF8E43EF98F04888289838CF012583EF89000C3E088F005F08002E4
:2018B20025E0D5F0FBF88512828513838514F0124BFA740C2DFAE43EFB8F04E8F4F88A820E
:2018D2008B838CF0124BFA9000C4E4F09000C5F09000C6F09000C7F09000C8F09000C9F08A
:2018F2009000CAF09000CBF09000CCF09000CDF09000CEF09000CFF08D828E838FF0125802
:201912003EFFBF01028014BF0202806EBF03030219EBBF0503021A49021AA59000C4E591EF
:20193200F09000C5E592F090FE19E09000C6F090FE11E09000C7F090FE29E09000C8F090E7
:20195200FE21E09000C9F090FE31E09000CAF090FD31E09000CBF090FD21E09000CCF090F1
:20197200FD11E09000CDF090FD01E09000CEF090FD41E09000CFF0021AA59000C4E595F0E2
:201992009000C5E596F090FE1AE09000C6F090FE12E09000C7F090FE2AE09000C8F090FE72
:2019B20022E09000C9F090FE32E09000CAF090FD32E09000CBF090FD22E09000CCF090FD8E
:2019D20012E09000CDF090FD02E09000CEF090FD42E09000CFF0021AA59000C4E5B1F090D0
:2019F20000C5E5B2F090FE1BE09000C6F090FE13E09000C7F090FE2BE09000C8F090FE2360
:201A1200E09000C9F090FE33E09000CAF090FD33E09000CBF090FD23E09000CCF090FD1339
:201A3200E09000CDF090FD03E09000CEF090FD43E09000CFF0805C9000C4E5C9F09000C587
:201A5200E5CAF090FE1DE09000C6F090FE15E09000C7F090FE2DE09000C8F090FE25E09034
:201A720000C9F090FE35E09000CAF090FD35E09000CBF090FD25E09000CCF090FD15E090D1
:201A920000CDF090FD05E09000CEF090FD45E09000CFF09000C4E0FF9000C0E0FCA3E0FDD7
:201AB200A3E0FE74032CF9E43DFA8E0389828A838BF012583EF99000B5740259F09000B6CD
:201AD200ECF0EDA3F0EEA3F08F82121772AF829000C5E0FE9000C0E0FBA3E0FCA3E0FD7469
:201AF200032BF8E43CF98D02888289838AF012583EF89000B5740158F09000B6EBF0ECA324
:201B1200F0EDA3F08E82C007121772AE829000C6E0F5129000C0E0FAA3E0FBA3E0FC7404C5
:201B32002AF8E43BF98C05888289838DF012583E9000B5F09000B6EAF0EBA3F0ECA3F085B6
:201B52001282C006121772AD829000C7E0F5129000C0E0F515A3E0F516A3E0F5177405251C
:201B720015F8E43516FBAC1788828B838CF012583E9000B5F09000B6E515F0E516A3F0E545
:201B920017A3F0851282C005121772AC829000C0E0F9A3E0FAA3E0FB89828A838BF0C00467
:201BB2001217C7E582D004D005D006D0077003021C70C0049000C8E0F5159000C0E0F51228
:201BD200A3E0F513A3E0F51474062512FAE43513FBAC148A828B838CF012583EFA9000B5CD
:201BF20074015AF09000B6E512F0E513A3F0E514A3F0851582C007C006C005C00412177203
:201C1200E582D0049000C8F09000C9E0F5159000C0E0F512A3E0F513A3E0F51474062512ED
:201C3200F8E43513FBAC1488828B838CF012583EF89000B5740258F09000B6E512F0E51357
:201C5200A3F0E514A3F0851582C004121772E582D004D005D006D0079000C9F0D00490006E
:201C7200C0E0F9A3E0FAA3E0FB89828A838BF0C007C006C005C004121808E582D004D005D3
:201C9200D006D007605AC0049000CAE0F5159000C0E0F512A3E0F513A3E0F51474072512C3
:201CB200FAE43513FBAC148A828B838CF012583E9000B5F09000B6E512F0E513A3F0E5140D
:201CD200A3F0851582C007C006C005C004121772E582D004D005D006D0079000CAF0D004B7
:201CF200C0049000CBE0F5159000C0E0F512A3E0F513A3E0F51474092512FAE43513FBACFA
:201D1200148A828B838CF012583EFA9000B574025AF09000B6E512F0E513A3F0E514A3F01C
:201D3200851582C007C006C005C004121772858215D0049000CCE0F5129000C0E0F518A3B1
:201D5200E0F519A3E0F51A74092518F8E43519FBAC1A88828B838CF012583EF89000B5745F
:201D72000158F09000B6E518F0E519A3F0E51AA3F0851282C004121772858218D0049000B7
:201D9200C0E0F512A3E0F513A3E0F514740C2512F8E43513F9AC14888289838CF012583EA5
:201DB200F89000CDE058F09000CEE0FC74082512F9E43513FAAB1489828A838BF012583E8E
:201DD2009000B5F09000B6E512F0E513A3F0E514A3F08C82C004121772858212D00490008E
:201DF200CFE0F51B9000C0E0F51CA3E0F51DA3E0F51E740A251CF8E4351DFBAC1E88828B5F
:201E1200838CF012583E9000B5F09000B6E51CF0E51DA3F0E51EA3F0851B82C004121772F1
:201E320085821CD004D005D006D0079000C0E0FAA3E0FBA3E0FC8A828B838CF012583EF5BD
:201E52001B7401B51B04D004801AD0047402B51B0280587403B51B03021F047405B51B03EF
:201E7200021F4B228F918E9290FE19EDF090FE11ECF09000C8E090FE29F09000C9E090FEDD
:201E920021F09000CAE090FE31F090FD31E515F090FD21E518F09000CDE090FD11F090FD9B
:201EB20001E512F090FD41E51CF0228F958E9690FE1AEDF090FE12ECF09000C8E090FE2A0E
:201ED200F09000C9E090FE22F09000CAE090FE32F090FD32E515F090FD22E518F09000CD9B
:201EF200E090FD12F090FD02E512F090FD42E51CF0228FB18EB290FE1BEDF090FE13ECF086
:201F12009000C8E090FE2BF09000C9E090FE23F09000CAE090FE33F090FD33E515F090FDD2
:201F320023E518F09000CDE090FD13F090FD03E512F090FD43E51CF0228FC98ECA90FE1DFD
:201F5200EDF090FE15ECF09000C8E090FE2DF09000C9E090FE25F09000CAE090FE35F090D7
:201F7200FD35E515F090FD25E518F09000CDE090FD15F090FD05E512F090FD45E51CF02267
:201F9200E5829000D0F09000D1E4F09000D0E0FFBF0102800FBF02028012BF03028015BF46
:201FB200052080189000D1E590F080169000D1E5A0F0800E9000D1E5B0F080069000D1E5E0
:201FD200C8F09000D1E0F58222AFF0AE83E5829000D2F0EEA3F0EFA3F09000D2E0FDA3E00F
:201FF200FEA3E0FF8D828E838FF012583EF582C007C006C005121F92AC82D005D006D007CC
:20201200740B2DF9E43EFA8F0389828A838BF012583E52040DBD00010E8D828E838FF01240
:20203200583EFD8DF005F0EC8002C313D5F0FBF58222AFF0AE83E5829000D6F0EEA3F0EFEF
:20205200A3F09000D6E0FDA3E0FEA3E0FF74022DFAE43EFB8F048A828B838CF012583EFA10
:20207200BA01159000D5E060067B017C0080047B007C009000D5EBF074012DFAE43EFB8FD8
:20209200048A828B838CF012583EFA9000D5E08AF005F0800225E0D5F0FBFA740B2DF9E474
:2020B2003EFB8F0489828B838CF012583E9000D55AF08D828E838FF012583EF582C007C011
:2020D20006C005121F92AC82D005D006D007740C2DF9E43EFA8F0389828A838BF012583E21
:2020F200F952049000D5E04CF08D828E838FF012583EFFBF0102800FBF02028011BF03024F
:202112008013BF051D80159000D5E0F590229000D5E0F5A0229000D5E0F5B0229000D5E06B
:03213200F5C822CB
:205E3A00000000000081811881810007000700147F147F14242A7F2A122313086462364958
:205E5A005522500005030000001C2241000041221C0014083E081408083E08080050300007
:205E7A00000808080808006060000020100804023E5149453E00427F4000426151494621E2
:205E9A0041454B311814127F1027454545393C4A4949300171090503364949493606494940
:205EBA00291E003636000000563600000814224100141414141400412214080201510906C4
:205EDA00324979413E7E1111117E7F494949363E414141227F4141221C7F494949417F09F1
:205EFA000909013E4149497A7F0808087F00417F41002040413F017F081422417F404040B5
:205F1A00407F020C027F7F0408107F3E4141413E7F090909063E4151215E7F09192946467B
:205F3A004949493101017F01013F4040403F1F2040201F3F4038403F631408146307087011
:205F5A0008076151494543007F41410002040810200041417F000402010204404040404008
:205F7A00000102040020545454787F484444383844444420384444487F3854545418087E68
:205F9A000901020C5252523E7F0804047800447D40002040443D007F1028440000417F40B7
:205FBA00007C041804787C0804047838444444387C14141408081414147C7C080404084817
:205FDA0054545420043F4440203C4040207C1C2040201C3C4030403C44281028440C5050D8
:205FFA00503C4464544C44000836410000007F0000004136080010080810080000000000BA
:20213500AF83E5829000DAF0EFA3F09000DAE0FEA3E0FFEE4F60197C827D0AEC4D600A006D
:2021550000001CBCFF011D80F21EBEFF011F80E322E5829000DCF0E0FFEF600B7E37EE6084
:20217500031E80FA1F80F222AF83E5829000DDF0EFA3F09000DDE0FEA3E0FFEE4F60107D8D
:1021950005ED60031D80FA001EBEFF011F80EC22C5
:20601A00000000000081811881810007000700147F147F14242A7F2A122313086462364976
:20603A005522500005030000001C2241000041221C0014083E081408083E08080050300025
:20605A00000808080808006060000020100804023E5149453E00427F400042615149462100
:20607A0041454B311814127F1027454545393C4A494930017109050336494949360649495E
:20609A00291E003636000000563600000814224100141414141400412214080201510906E2
:2060BA00324979413E7E1111117E7F494949363E414141227F4141221C7F494949417F090F
:2060DA000909013E4149497A7F0808087F00417F41002040413F017F081422417F404040D3
:2060FA00407F020C027F7F0408107F3E4141413E7F090909063E4151215E7F09192946469A
:20611A004949493101017F01013F4040403F1F2040201F3F4038403F63140814630708702F
:20613A0008076151494543007F41410002040810200041417F000402010204404040404026
:20615A00000102040020545454787F484444383844444420384444487F3854545418087E86
:20617A000901020C5252523E7F0804047800447D40002040443D007F1028440000417F40D5
:20619A00007C041804787C0804047838444444387C14141408081414147C7C080404084835
:2061BA0054545420043F4440203C4040207C1C2040201C3C4030403C44281028440C5050F6
:2061DA00503C4464544C44000836410000007F0000004136080010080810080000000000D8
:2021A500AFF0AE83E5829000E0F0EEA3F0EFA3F09000E0E0FDA3E0FEA3E0FF74012DFAE4B0
:2021C5003EFB8F048A828B838CF0E4124BFA74022DFAE43EFB8F048A828B838CF0E4124B39
:2021E500FA74032DFAE43EFB8F048A828B838CF0E4124BFA74042DFDE43EFE8D828E838F50
:20220500F0E4024BFAAFF0AE83E5829000E3F0EEA3F0EFA3F09000E3E0FDA3E0FEA3E0FFAE
:2022250074012DFAE43EFB8F048A828B838CF012583EFA8D828E838FF012583EFDEAB5052D
:202245000474018001E4F58222AFF0AE83E5829000E6F0EEA3F0EFA3F09000E6E0FDA3E08C
:20226500FEA3E0FF8D828E838FF012583EFC0DBD00010E8D828E838FF012583EFDECC39D2D
:20228500F58222C01F85811FC082C083C0F0E5812408F581A81F0886820886830886F012E7
:2022A500224EAC82E51F24FAF8C3EC96B39208E433FC2008030223E2A81F08E51F2404F996
:2022C500740326F7E4083609F70809E6F7E51F2404F886820886830886F0E51F240AF9125D
:2022E500583EF7A81F08E51F2407F9740526F7E4083609F70809E6F7E51F240BF87600E529
:202305001F240BF8E51F24FAF9C3E69740030223A3C004A81F0886820886830886F0125878
:202325003EFCE51F240AF8E6B504028004D0048009D004E51F240AF87600C004E51F24074B
:20234500F886820886830886F012583EFAA312583EFBA312583EFCE51F240AF8E62AFAE4A2
:202365003BFBE51F24FBF88605088606088607E51F240BF8E62DFDE43EFE8D828E838FF059
:2023850012583EFD8A828B838CF0124BFAE51F240AF806E51F240BF806D004022304E51F44
:2023A5002404F886820886830886F0E51F240AF9E7124BFAA81F08740126FDE40836FE0869
:2023C50086078D828E838FF012583EFBE51F24FAF8E62BFB8D828E838FF0124BFA8C82857A
:2023E5001F81D01F22C01F85811FC082C083C0F0E5812409F581A81F08740126FAE408365F
:20240500FB0886048A828B838CF012583EFFE51F24FAF8C3EF96B39208E51F2404F8A20870
:20242500E433F6200803022543A81F08E51F2405F9740226F7E4083609F70809E6F7E51F59
:202445002405F886820886830886F0E51F240BF912583EF7A81F08E51F2408F9740526F766
:20246500E4083609F70809E6F7E51F240CF87600E51F240CF8E51F24FAF9C3E697400302D9
:202485002511A81F0886820886830886F012583EFDE51F240BF8E6B50507E51F240BF87683
:2024A50000C002C003C004E51F24FBF88603088604088605E51F240CF8E62BFBE43CFCE5CC
:2024C5001F2408F886820886830886F012583EFAA312583EFEA312583EFFE51F240BF8E6D7
:2024E5002AFAE43EFE8A828E838FF012583E8B828C838DF0124BFAE51F240BF806E51F2406
:202505000CF806D004D003D002022475E51F2405F886820886830886F0E51F240BF9E712B7
:202525004BFA8A828B838CF012583EFFE51F24FAF8EFC396FF8A828B838CF0124BFAE51FC2
:0B2545002404F88682851F81D01F222D
:2061FA00000000000081811881810007000700147F147F14242A7F2A122313086462364995
:20621A005522500005030000001C2241000041221C0014083E081408083E08080050300043
:20623A00000808080808006060000020100804023E5149453E00427F40004261514946211E
:20625A0041454B311814127F1027454545393C4A494930017109050336494949360649497C
:20627A00291E00363600000056360000081422410014141414140041221408020151090600
:20629A00324979413E7E1111117E7F494949363E414141227F4141221C7F494949417F092D
:2062BA000909013E4149497A7F0808087F00417F41002040413F017F081422417F404040F1
:2062DA00407F020C027F7F0408107F3E4141413E7F090909063E4151215E7F0919294646B8
:2062FA004949493101017F01013F4040403F1F2040201F3F4038403F63140814630708704E
:20631A0008076151494543007F41410002040810200041417F000402010204404040404044
:20633A00000102040020545454787F484444383844444420384444487F3854545418087EA4
:20635A000901020C5252523E7F0804047800447D40002040443D007F1028440000417F40F3
:20637A00007C041804787C0804047838444444387C14141408081414147C7C080404084853
:20639A0054545420043F4440203C4040207C1C2040201C3C4030403C44281028440C505014
:2063BA00503C4464544C44000836410000007F0000004136080010080810080000000000F6
:20255000E5829000EAF07F00BF0300400122EF75F003A4FDAEF024BAF582EE3465F583E428
:2025700093FC9000EAE0FBECB50302800302262174CF55BAFCEBC454F0FB74305B4CF5BABF
:202590009000EB7403F09000ECE4F09000ED04F09000EE7403F09000EFE4F09000F0F09050
:2025B00000F17403F09000F27401F09000F3E4F09000F4F09000F5F09000F6F09000F7F09F
:2025D000ED24BAFDEE3465FE8D828E83A3A3E493FCC4540F9000EBF053040F9000ECECF075
:2025F0009000EB75F000C006C005121844D005D0068D828E83A3E493FEC4540F9000EBF07D
:2026100053060F9000ECEEF09000EB75F0000218440F022558E5829000FCF0E0F5821225AB
:20263000509000F8E0FCA3E0FDA3E0FEA3E0FF9005DCECF0EDA3F0EEA3F0EFA3F0900EC025
:2026500075F0167402124ADEAC82AD83EDC313CC13CCC313CC13CC1C1C9000FDECF0EC2441
:20267000C050069000FD743FF090FE81E4F090FE82F09000FDE090FE8044C0F02290FE8280
:20269000E030E6F990FE82E053E0BFF02290FE817401F002268D90FE817406F002268DE50B
:2026B000829000FEF0E0600A90FE82E043E001F0800890FE82E053E0FEF090FE817405F0AB
:2026D00002268DE5829000FFF0E090FE86F090FE817402F002268D90FE817403F012268D06
:2026F00090FE82E0FF530702E4A2E713CF13CF8F822290FE817404F012268D90FE87E0F5F5
:202710008222E582900101F0E025E0FF900100E090FE864FF090FE817409F012268D90FEA5
:2027300082E0FF530702E4A2E713CF13CF8F8222E582900102F0E090FE86F090FE81740A0D
:20275000F012268D90FE82E0FF530702E4A2E713CF13CF8F8222E582900103F0E060067E56
:182770000C7F0080047E0B7F0090FE81EEF012268D90FE87E0F58222FA
:2063DA00000000000081811881810007000700147F147F14242A7F2A1223130864623649B3
:2063FA005522500005030000001C2241000041221C0014083E081408083E08080050300062
:20641A00000808080808006060000020100804023E5149453E00427F40004261514946213C
:20643A0041454B311814127F1027454545393C4A494930017109050336494949360649499A
:20645A00291E0036360000005636000008142241001414141414004122140802015109061E
:20647A00324979413E7E1111117E7F494949363E414141227F4141221C7F494949417F094B
:20649A000909013E4149497A7F0808087F00417F41002040413F017F081422417F4040400F
:2064BA00407F020C027F7F0408107F3E4141413E7F090909063E4151215E7F0919294646D6
:2064DA004949493101017F01013F4040403F1F2040201F3F4038403F63140814630708706C
:2064FA0008076151494543007F41410002040810200041417F000402010204404040404063
:20651A00000102040020545454787F484444383844444420384444487F3854545418087EC2
:20653A000901020C5252523E7F0804047800447D40002040443D007F1028440000417F4011
:20655A00007C041804787C0804047838444444387C14141408081414147C7C080404084871
:20657A0054545420043F4440203C4040207C1C2040201C3C4030403C44281028440C505032
:20659A00503C4464544C44000836410000007F000000413608001008081008000000000014
:0965BA00001514012524033233FD
:20013B00786776107868760078697600786A7600786B7600786C7657087600087640787FFD
:1C015B007610788076007881760078827600788376007884766F08760008764027
:20278800E582900105F0900106E4F0A3F0A3F0900105E0FFBF010D9001067467F0E4A3F098
:2027A8007440A3F0900106E0FDA3E0FEA3E0FF8D828E838FF022E582900109F090010AE422
:2027C800F0A3F0A3F0900109E0FFBF010D90010A747FF0E4A3F07440A3F090010AE0FDA33E
:2027E800E0FEA3E0FF8D828E838FF022E58290010DF0E0F5821227BEAD82AE83AFF07404F6
:202808002DFDE43EFE8D828E838FF012583EB40100E433F58222E58290010FF0C2AF9001C1
:202828000FE0F5821227BE12224EAF8290010EE0FEC3EF9EE433900110B40100E433F0D26D
:20284800AF900110E0F58222E582900111F0C2AF900111E0F582122788AD82AE83AFF00D77
:20286800BD00010E8D828E838FF012583EFDD2AF8D8222E582900112F0C2AF900112E0F5AB
:20288800821227881221A5D2AF22E58290011AF090011BE4F090011C7402F090011AE0FF53
:2028A800BF0109900118E06003022936900117E0FEBE010590011CEFF090011CE0FF900107
:2028C80013E0FBA3E0FCA3E0FDA3E0FE9005DCEBF0ECA3F0EDA3F0EEA3F0900EC075F016DD
:2028E8007402C007124ADEAB82AC83ADF0FED007EEC313FEED13FDEC13FCEB13FBEEC31314
:20290800FEED13FDEC13FCEB139000A5F0ECA3F0EDA3F0EEA3F09000A9E4F09000AAF0904F
:2029280000ABF08F8212132FE58290011BF090011BE06003022A7190011DE4F0900118E0F5
:20294800FF24FC404CEF2F90295373800680148012801090011AE0FEBE013690011D74014A
:20296800F0802E90011AE0FEBE0120900113E0FBA3E0A3E0FDA3E0FE530302E4C313CB1356
:20298800CBFC90011D74024BF0800690011D7401F0BF03067E207F0080047E007F00900179
:2029A8001DE030E1067C807D0080047C007D00EC4E4410FF90011AE0FEBE01028003022A7F
:2029C8005190011DE0FEBE0102800ABE02028017BE034A802E90011CE0FEBE0205438E0193
:2029E800803B538EFE8036900113E0FBA3E0FCA3E0FDA3E0FEEB30E005438780801F5387BD
:202A08007F801A900113E0FBA3E0FCA3E0FDA3E0FEEB30E005438E208003538EDF743F555A
:202A2800A2FE900119E0030354C0FD74C05D4EF5A290011DE030E0067D407E0080047D00F7
:202A48007E00ED4FF59843A81090011AE0F5821227BEAD82AE83AFF074042DFDE43EFE8DE5
:202A6800828E838FF0E4124BFA90011BE0F58222C021C0E0C0F0C082C083C007C006C005D4
:202A8800C004C003C002C001C000C0D075D000C2AFE59830E1325398FD7401C0E0741EC00F
:202AA800E07401C0E0E4C0E090007F75F0401223EAAF82E58124FCF581EF600890011EE0AF
:202AC800F599800478837600E59830E0275398FE90011EE599F07401C0E0741EC0E07401F5
:202AE800C0E0E4C0E090006775F040122288E58124FCF581D2AFD0D0D000D001D002D003EF
:202B0800D004D005D006D007D083D082D0F0D0E0D02132E582900124F0E0F582122788AD4E
:202B280082AE83AFF090011FE0F523A3E0F524A3E0F525900123E0F9B90103E98001E4F5CD
:202B480022C2AFA823A924AC25C007C006C005900122E0C0E0C000C001C0048D828E838FF8
:202B6800F01223EAAC82E58124FCF581D005D006D007D2AFE5226003EC60C68C8222E582FE
:202B880090012AF0E0F5821227BEAD82AE83AFF0900125E0F527A3E0F528A3E0F5299001B1
:202BA80029E0F9B90103E98001E4F526C2AFA827A928AC29C007C006C005900128E0C0E074
:202BC800C000C001C0048D828E838FF0122288AC82E58124FCF581D005D006D007D2AFE53B
:202BE800266003EC60C6EC604D74042DF9E43EFA8F0389828A838BF012583E703989828AD4
:202C0800838BF07401124BFAC004C0E0742BC0E07401C0E0E4C0E08D828E838FF01223EAE8
:192C2800E58124FCF581D00490012AE0FFBF010690012BE0F5998C822209
:2065C300000000000081811881810007000700147F147F14242A7F2A1223130864623649C8
:2065E3005522500005030000001C2241000041221C0014083E081408083E08080050300077
:20660300000808080808006060000020100804023E5149453E00427F400042615149462151
:2066230041454B311814127F1027454545393C4A49493001710905033649494936064949AF
:20664300291E00363600000056360000081422410014141414140041221408020151090633
:20666300324979413E7E1111117E7F494949363E414141227F4141221C7F494949417F0960
:206683000909013E4149497A7F0808087F00417F41002040413F017F081422417F40404024
:2066A300407F020C027F7F0408107F3E4141413E7F090909063E4151215E7F0919294646EB
:2066C3004949493101017F01013F4040403F1F2040201F3F4038403F631408146307087081
:2066E30008076151494543007F41410002040810200041417F000402010204404040404078
:20670300000102040020545454787F484444383844444420384444487F3854545418087ED7
:206723000901020C5252523E7F0804047800447D40002040443D007F1028440000417F4026
:20674300007C041804787C0804047838444444387C14141408081414147C7C080404084886
:2067630054545420043F4440203C4040207C1C2040201C3C4030403C44281028440C505047
:20678300503C4464544C44000836410000007F000000413608001008081008000000000029
:04017700C200C201FF
:202C410022E582900130F0E0700F90012EE0FEA3E0FF4E24FF9200D20122900080E4F0904F
:202C61000081F09000827402F0758200020C6130013390063FE0FEA3E0FF900641EEF0EFC7
:202C8100A3F0A200E433243DF582E43406F583E0FD3395E0FCED2EFDEC3FFC90063FEDF007
:202CA100ECA3F0C2012290063FE0FEA3E08E82F5832290063FE0FEA3E0900641E0FDA3E062
:202CC100EEC39DF5822290063FE4F0A3F022AF83E582900131F0EFA3F0900131E0FEA3E0BE
:0A2CE100FF90063FEEF0EFA3F02293
:2067A300000000000081811881810007000700147F147F14242A7F2A1223130864623649E6
:2067C3005522500005030000001C2241000041221C0014083E081408083E08080050300095
:2067E300000808080808006060000020100804023E5149453E00427F400042615149462170
:2068030041454B311814127F1027454545393C4A49493001710905033649494936064949CD
:20682300291E00363600000056360000081422410014141414140041221408020151090651
:20684300324979413E7E1111117E7F494949363E414141227F4141221C7F494949417F097E
:206863000909013E4149497A7F0808087F00417F41002040413F017F081422417F40404042
:20688300407F020C027F7F0408107F3E4141413E7F090909063E4151215E7F091929464609
:2068A3004949493101017F01013F4040403F1F2040201F3F4038403F63140814630708709F
:2068C30008076151494543007F41410002040810200041417F000402010204404040404096
:2068E300000102040020545454787F484444383844444420384444487F3854545418087EF6
:206903000901020C5252523E7F0804047800447D40002040443D007F1028440000417F4044
:20692300007C041804787C0804047838444444387C14141408081414147C7C0804040848A4
:2069430054545420043F4440203C4040207C1C2040201C3C4030403C44281028440C505065
:20696300503C4464544C44000836410000007F000000413608001008081008000000000047
:067B9700FF0100000000E8
:202CEB009000F87480F0741AA3F07406A3F0E4A3F0758200122625906B63E493FF900536C5
:202D0B0074012463F0E4346BA3F07480A3F0900100E4F075823CC007122712D0078F061FEA
:202D2B00EE70030226A6758280C007122740900536E0FCA3E0FDA3E0FE8C828D838EF0124C
:202D4B00583EFB90053674012CF0E43DA3F0EEA3F08B82122740D007900536E0FCA3E0FDC2
:202D6B00A3E0FE8C828D838EF012583EFB90053674012CF0E43DA3F0EEA3F0900536E0FC50
:202D8B00A3E0FDA3E0FE8B021BEA6091758280C007C006C005C004C003122740D003D00434
:202DAB00D005D0068C828D838EF012583EFAA3AC82AD83900536ECF0EDA3F0EEA3F08A826A
:202DCB00C006C005C004C003122740D003D004D005D006D00780AF900100E4F075823C125B
:202DEB0027127582801227407582A61227400226A6900100E4F075823C122712758280124F
:202E0B0027407582A71227400226A6900100E4F075823C1227127582401227407E007F00CB
:202E2B008E048F0574FC2D401FEE2436F582EF3401F5830EBE00010FE0F582C007C0061238
:202E4B002740D006D00780D81226A6758200229005E9E4F09005EAF07404A3F090013675FC
:202E6B00F000024BD2E58290053AF0E0FF7E00900539E0FDE45401A2E0CD13CD13CDFC9036
:202E8B000134ED2FF0EC3EA3F022900134E0FEA3E08E04A2E7CC33CC33CC54018C07EF0322
:202EAB005480FFEEC39F24062480501FEC24F8500475820122BC060050110CE4C3CC13CCB0
:202ECB0013CCFF900134ECF0EFA3F075820022E58290053BF0122E95AF82BF0104758201E4
:202EEB002290053BE0FF7E00BE05005066900134E0FCA3E0FD90013474012CF0E43DA3F0D4
:202F0B00EC2436FCED3401FD8F027B00EA24E0FAEB34FFFB9005EDEAF0EBA3F0900005C009
:202F2B0007C006C005C004124C15AA82AB83D004D005D006D007EA2483FAEB3469FB8E0170
:202F4B000EE92AF582E43BF583E493FB8C828D83F08095900134E02401F0A3E03400F075CC
:202F6B00820022AFF0AE83E58290053CF0EEA3F0EFA3F090053CE0FDA3E0FEA3E0FF7B007B
:202F8B007C00EB2DF8EC3EF98F02888289838AF012583E6031EB2DF8EC3EF98F020BBB0093
:202FAB00010C888289838AF012583EF582C007C006C005C004C003122EDAD003D004D005DB
:202FCB00D006D00780BC22E582900540F0E0FF2480400990053FE0FE24BF500475820122E0
:202FEB00EEC423541FFDC40354F8FCEEC39CF5F005F07401800225E0D5F0FBFEE4FC54015C
:20300B00A2E0CD13CD13CDFBED2FFFEB3CFC90013474012FF0E43CA3F0EF2436FFEC3401E8
:20302B00FC8F828C83E042068F828C83EEF075820022E582900544F090054B7401F0E4A32E
:20304B00F090054D04F0E4A3F0900541E0FFFD7E00900544E0FC7B00EDC39CFDEE9BFE9068
:20306B000547EDF0EEA3F0900543E0FC8C2A8B2B900542E0F52CA82C7B00E52AC398F8E50D
:20308B002B9BFB900549E8F0EBA3F08D018E02EA30E713900547C3E49DF0E49EA3F0900544
:2030AB004B74FFF0A3F088058B06EE30E713900549C3E498F0E49BA3F090054D74FFF0A387
:2030CB00F0900549E0FDA3E0FE900547E0FAA3E0FBC3ED9AEE64808BF063F08095F0400353
:2030EB000231D0ED2DF8EE33F9900545E8C39AF0E99BA3F0900544E0F990053FE52CF08960
:20310B0082C007C006C005C003C002122FD2D002D003D005D006D00790054DE0F534A3E0A3
:20312B00F5358A2A8B2B90054BE0F52DA3E0F52E8D2F8E30900544E0F531EFB53103023203
:20314B00D7A92DA831900544E928F0900545E0F8A3E0F98832E9F53320E729C0078534312A
:20316B00900542E02531F0A92AAF2BE929F9EF33FFE532C399F9E5339FFF900545E9F0EFAA
:20318B00A3F0D007C007A82FA930E828F532E933F533900545E0F9A3E0FFE53229F9E53342
:2031AB003FFF900545E9F0EFA3F0900544E0FF900542E090053FF08F82C007122FD2D0079C
:2031CB00D00702313FEA2AF9EB33FF900545EDC399F0EE9FA3F0900544E0FF90053FE52CA1
:2031EB00F08F82C006C005C004C003C002122FD2D002D003D004D005D00690054BE0F9A35C
:20320B00E0FF90054DE0F534A3E0F535900542E0F8B504030232D7C002C003AB349005427B
:20322B00EB28F0900545E0FAA3E0FB8A328B33C3E4953274808533F063F08095F0D003D0CF
:20324B0002402AC002C0038900900544E028F08D028E03EA2AFAEB33FBEA2532FAEB353343
:20326B00FB900545EAF0EBA3F0D003D002C005C0068A008B06E828F532EE33F53390054571
:20328B00E0FDA3E0FEEDC39532FDEE9533FE900545EDF0EEA3F0900544E0FE900542E0FDFA
:2032AB0090053FF08E82C007C006C005C004C003C002C001122FD2D001D002D003D004D0A6
:1032CB0005D006D007D006D0050232177582002232
:20698300000000000081811881810007000700147F147F14242A7F2A122313086462364904
:2069A3005522500005030000001C2241000041221C0014083E081408083E080800503000B3
:2069C300000808080808006060000020100804023E5149453E00427F40004261514946218E
:2069E30041454B311814127F1027454545393C4A49493001710905033649494936064949EC
:206A0300291E0036360000005636000008142241001414141414004122140802015109066F
:206A2300324979413E7E1111117E7F494949363E414141227F4141221C7F494949417F099C
:206A43000909013E4149497A7F0808087F00417F41002040413F017F081422417F40404060
:206A6300407F020C027F7F0408107F3E4141413E7F090909063E4151215E7F091929464627
:206A83004949493101017F01013F4040403F1F2040201F3F4038403F6314081463070870BD
:206AA30008076151494543007F41410002040810200041417F0004020102044040404040B4
:206AC300000102040020545454787F484444383844444420384444487F3854545418087E14
:206AE3000901020C5252523E7F0804047800447D40002040443D007F1028440000417F4063
:206B0300007C041804787C0804047838444444387C14141408081414147C7C0804040848C2
:206B230054545420043F4440203C4040207C1C2040201C3C4030403C44281028440C505083
:206B4300503C4464544C44000836410000007F000000413608001008081008000000000065
:206B630011AE00A8013F2001004000D30100A100C800DA011281017FA400A600D50180D966
:0C6B830001C2DB01208D01142E00AF00C8
:040000000200E332E5
:01000B0032C2
:0100130032BA
:01001B0032B2
:03002300022A7836
:01002B0032A2
:01003300329A
:01003B003292
:01004300328A
:01004B003282
:01005300327A
:01005B003272
:03006300023566FD
:01006B003262
:01007300325A
:01007B003252
:01008300324A
:01008B003242
:01009300323A
:03009B00023DA380
:0100A300322A
:0100AB003222
:0100B300321A
:0100BB003212
:0100C300320A
:0100CB003202
:0300D300020DB269
:0300DB0002106EA2
:03017F000200DE9D
:0300DE000232DB10
:2032DB0043BA80900002E4F074C2A3F07401A3F0E4A3F0900006F0758201120182123D6CDA
:2032FB00123DE8123341122C5B12335C122CEB12406FD2AF9001F4122135122C70123EDB8B
:20331B00123D45123505E433FE7F00C006C007746FC0E0746DC0E07480C0E0124E1CE58117
:06333B0024FBF58180D4A3
:206B8F00000000000081811881810007000700147F147F14242A7F2A1223130864623649F6
:206BAF005522500005030000001C2241000041221C0014083E081408083E080800503000A5
:206BCF00000808080808006060000020100804023E5149453E00427F400042615149462180
:206BEF0041454B311814127F1027454545393C4A49493001710905033649494936064949DE
:206C0F00291E00363600000056360000081422410014141414140041221408020151090661
:206C2F00324979413E7E1111117E7F494949363E414141227F4141221C7F494949417F098E
:206C4F000909013E4149497A7F0808087F00417F41002040413F017F081422417F40404052
:206C6F00407F020C027F7F0408107F3E4141413E7F090909063E4151215E7F091929464619
:206C8F004949493101017F01013F4040403F1F2040201F3F4038403F6314081463070870AF
:206CAF0008076151494543007F41410002040810200041417F0004020102044040404040A6
:206CCF00000102040020545454787F484444383844444420384444487F3854545418087E06
:206CEF000901020C5252523E7F0804047800447D40002040443D007F1028440000417F4055
:206D0F00007C041804787C0804047838444444387C14141408081414147C7C0804040848B4
:206D2F0054545420043F4440203C4040207C1C2040201C3C4030403C44281028440C505075
:206D4F00503C4464544C44000836410000007F000000413608001008081008000000000057
:146D6F00537465707065722053746174653A202564200D00FC
:1B33410090064375F00002184490064375F000121FDBE582906F6393F5822296
:206D8300000000000081811881810007000700147F147F14242A7F2A122313086462364900
:206DA3005522500005030000001C2241000041221C0014083E081408083E080800503000AF
:206DC300000808080808006060000020100804023E5149453E00427F40004261514946218A
:206DE30041454B311814127F1027454545393C4A49493001710905033649494936064949E8
:206E0300291E0036360000005636000008142241001414141414004122140802015109066B
:206E2300324979413E7E1111117E7F494949363E414141227F4141221C7F494949417F0998
:206E43000909013E4149497A7F0808087F00417F41002040413F017F081422417F4040405C
:206E6300407F020C027F7F0408107F3E4141413E7F090909063E4151215E7F091929464623
:206E83004949493101017F01013F4040403F1F2040201F3F4038403F6314081463070870B9
:206EA30008076151494543007F41410002040810200041417F0004020102044040404040B0
:206EC300000102040020545454787F484444383844444420384444487F3854545418087E10
:206EE3000901020C5252523E7F0804047800447D40002040443D007F1028440000417F405F
:206F0300007C041804787C0804047838444444387C14141408081414147C7C0804040848BE
:206F230054545420043F4440203C4040207C1C2040201C3C4030403C44281028440C50507F
:206F4300503C4464544C44000836410000007F000000413608001008081008000000000061
:026F630000012B
:0D7B9D0003070102010103010001000000C7
:02017B00C202BE
:20335C0090065075F0001218449000D57401F090065075F00012204490065D75F00012188B
:20337C004490066A75F00012184490067775F00012184490068475F0001218447582000254
:20339C003508AF82AE83ADF0FC900553EFF0EEA3F0EDA3F0ECA3F0900553E0FCA3E0FDA3AB
:2033BC00E0FEA3E0FF900695ECF0EDA3F0EEA3F0EFA3F022AFF0AE83E582900557F0EEA341
:2033DC00F0EFA3F0900557E0FDA3E0FEA3E0FF8D828E838FF012583E900552F074022DFAD8
:2033FC00E43EFB8F048A828B838CF012583EF582C007C006C005123508D005D006D00774B5
:20341C00012DFAE43EFB8F048A828B838CF012583E9000D5F090066A75F000C007C006C073
:20343C0005122044D005D006D00774032DFCE43EFA8F038C828A838BF012583EF9A31258E1
:20345C003EFAA312583EFBA312583EFC900695E9F0EAA3F0EBA3F0ECA3F074072DFDE43E46
:20347C00FE8D828E838FF012583EFDA312583EFEA312583EFFA312583EFC900691EDF0EE22
:20349C00A3F0EFA3F0ECA3F0D2029000D5E4F090065075F000122044900695E0FCA3E0FD27
:2034BC00A3E0FEA3E0FF9005DCECF0EDA3F0EEA3F0EFA3F0900EC075F0167402124ADEACE8
:2034DC0082AD83AEF0FF9000A5ECF0EDA3F0EEA3F0EFA3F09000A9E4F09000AA04F0900022
:2034FC00ABE4F075820202132FA20222E58290055AF0E0FF907145939000D5F09006777559
:20351C00F000C007122044D007EF907149939000D5F090068475F000022044E58290055B2E
:20353C00F020021190055BE09000D5F090065075F00002204422E58290055CF0E09000D5C7
:20355C00F090066A75F000022044C021C0E0C0F0C082C083C007C006C005C004C003C00243
:20357C00C001C000C0D075D000900691E0FCA3E0FDA3E0FEA3E0FFEC4D4E4F6048900691AE
:20359C00E0FCA3E0FDA3E0FEA3E0FF1CBCFF091DBDFF051EBEFF011F900691ECF0EDA3F074
:2035BC00EEA3F0EFA3F090065D75F000121FDBE582B40100E4339000D5F090065D75F000A8
:2035DC00122044801C300219900552E09000D5F090065075F000122044C2027582021216B0
:2035FC00E8D0D0D000D001D002D003D004D005D006D007D083D082D0F0D0E0D02132AFF0B4
:20361C00AE83E582900560F0EEA3F0EFA3F0900560E0F537A3E0F538A3E0F539900560E0D7
:20363C00F5F0A3E045F0600F90055DE0FAA3E0FBA3E0FCEA4B7001228A828B838CF01258D1
:20365C003EF53674012AF8E43BF98C07888289838FF012583EF874022AFDE43BFE8C078D94
:20367C00828E838FF012583EFD74032AF9E43BFE8C0789828E838FF012583EF974042AFA55
:20369C00E43BFB8A828B838CF012583EFA9005EDE536F0E4A3F0900064C005C002C001C0BC
:2036BC0000124C15AE82AF83D000D001D002D0059005EDE8F0E4A3F090000AC007C006C019
:2036DC0005C002C001124C15AB82AC83D001D002D005D006D007EB2EFEEC3FFF7C00ED2E7A
:2036FC00FEEC3FFF3395E0FDFC9005EDE9F0E4A3F090000AC007C006C005C004C002124C43
:20371C0015A982AB83D0028A007A00E829F9EA3BFB9005EFE9F0EBA3F0EB3395E0A3F0A37B
:20373C00F0900C80E4F5F0124C35A882A983AAF0FB9005DC7464F0E4A3F0A3F0A3F088823A
:20375C0089838AF0EB124ADE85823A85833B85F03CF53DD004D005D006D00774072537F915
:20377C00E43538FAAB399005EFEEF0EFA3F0EDA3F0ECA3F0900C80E4F5F0C003C002C001F0
:20379C00124C35AC82AD83AEF0FFD001D002D003E53A2CFCE53B3DFDE53C3EFEE53D3FFFAB
:1937BC0089828A838BF0EC124BFAA3ED124BFAA3EE124BFAA3EF024BFA76
:206F6500000000000081811881810007000700147F147F14242A7F2A12231308646236491C
:206F85005522500005030000001C2241000041221C0014083E081408083E080800503000CB
:206FA500000808080808006060000020100804023E5149453E00427F4000426151494621A6
:206FC50041454B311814127F1027454545393C4A4949300171090503364949493606494904
:206FE500291E00363600000056360000081422410014141414140041221408020151090688
:20700500324979413E7E1111117E7F494949363E414141227F4141221C7F494949417F09B4
:207025000909013E4149497A7F0808087F00417F41002040413F017F081422417F40404078
:20704500407F020C027F7F0408107F3E4141413E7F090909063E4151215E7F09192946463F
:207065004949493101017F01013F4040403F1F2040201F3F4038403F6314081463070870D5
:2070850008076151494543007F41410002040810200041417F0004020102044040404040CC
:2070A500000102040020545454787F484444383844444420384444487F3854545418087E2C
:2070C5000901020C5252523E7F0804047800447D40002040443D007F1028440000417F407B
:2070E500007C041804787C0804047838444444387C14141408081414147C7C0804040848DB
:2071050054545420043F4440203C4040207C1C2040201C3C4030403C44281028440C50509B
:20712500503C4464544C44000836410000007F00000041360800100808100800000000007D
:107145000001000100000101800C006400320019FB
:207BAA000204010100000301000000000002010101000003010000000000020001010000A2
:207BCA00030100000000000203010100000301000000000002020101000003010000000082
:097BEA0000000000003200000060
:2037D5009006B1E0FEA3E0FFC0078E828F831200E1AE82D0079006B0EEF09006B4E0FEA35B
:2037F500E0FFC0078E828F831200E1AE82D0079006B3EEF09006B7E0FEA3E0FFC0078E8247
:203815008F831200E1AE82D0079006B6EEF09006B0E0FFBF010280129006B3E0FFBF0102FA
:2038350080089006B6E0FFBF010C9006997401F07582000240DE229006BEE0FEA3E0FF8EE5
:20385500828F831200E1AE82AF839006BCEEF0EFA3F09006B7E0FEA3E0FFC0078E828F8322
:203875001200E1AE82D0079006B6EEF09006BCE0FEA3E0FFC3EE9403EF64809480402012BC
:203895002CC79006BEE0FCA3E0FD8C828D831200E1AC82AD839006BCECF0EDA3F08025EFBF
:2038B50030E721900002122CCF9006BEE0FEA3E0FF8E828F831200E1AE82AF839006BCEEB1
:2038D500F0EFA3F09006B6E0FFBF01449006BCE0FEA3E0FFBE0005BF00028010BE0105BFE9
:2038F50000028014BE0229BF002680189006997402F0122CC702422D9006997403F0122CD8
:20391500C70245F09006997404F0122CC702460B9006BCE0F5820240DE9006B1E0FEA3E034
:20393500FFC0078E828F831200E1AE82D0079006B0EEF09006B4E0FEA3E0FFC0078E828F5C
:20395500831200E1AE82D0079006B3EEF09006B7E0FEA3E0FFC0078E828F831200E1AE82F5
:20397500D0079006B6EEF09006BEE0FEA3E0FF8E828F831200E1AE82AF839006BCEEF0EFE7
:20399500A3F09006BAE0FEA3E0FFC0078E828F831200E1AE82D0079006B9EEF09006B3E096
:2039B500FFBF011C9006C1E0B40100E433FF9006C1F08F821235529006C1E0F582124626F8
:2039D5009006B9E0FF9006C0E0FEEFB506028019EEB40100E433FF9006C0F08F821235379D
:2039F5009006C0E0F5821246559006BCE0FEA3E0FFC3EE9405EF648094804020122CC79080
:203A150006BEE0FCA3E0FD8C828D831200E1AC82AD839006BCECF0EDA3F08025EF30E72188
:203A3500900004122CCF9006BEE0FEA3E0FF8E828F831200E1AE82AF839006BCEEF0EFA3E3
:203A5500F09006B0E0FFBF0123123505401E9006C075F0001233D07435C0E07473C0E0749B
:203A750080C0E0124E1C1581158115819006B6E0FFBF01028003023B2E9006BCE0FEA3E045
:203A9500FFBE0005BF00028023BE0105BF00028030BE0205BF0002803CBE0305BF0002806D
:203AB50049BE0405BF0002804D023B2E9006997405F09006C3E0FEA3E0FF8E828F83022C47
:203AD500CF9006997406F09006C2E0FF7E008F828E83022CCF9006997407F09006C7E0FEC0
:203AF500A3E0FF8E828F83022CCF9006997401F07582030240DE123505401E9006C075F0FD
:203B1500001233D07435C0E07473C0E07480C0E0124E1C1581158115819006BCE0F582022E
:203B350042C59006B7E0FEA3E0FFC0078E828F831200E1AE82D0079006B6EEF09006BEE07B
:203B5500FEA3E0FF8E828F831200E1AE82AF839006BCEEF0EFA3F09006BCE0A3E030E707D4
:203B75009006BCE4F0A3F09006B6E0FFBF01279006BCE0FEA3E0FF3395E0FDFC9006C3EECB
:203B9500F0EFA3F0EDA3F0ECA3F09006997402F0122CC702422D9006BCE0FEA3E0FF8E82D2
:203BB5008F830248AC9006B7E0FEA3E0FFC0078E828F831200E1AE82D0079006B6EEF0909E
:203BD50006BEE0FEA3E0FF8E828F831200E1AE82AF839006BCEEF0EFA3F09006BCE0A3E0CE
:203BF50030E7079006BCE4F0A3F09006B6E0FFBF010C9006997402F0122CC702422D900641
:203C1500BCE0FEA3E0FF8E828F830248479006B7E0FEA3E0FFC0078E828F831200E1AE8207
:203C3500D0079006B6EEF09006BEE0FEA3E0FF8E828F831200E1AE82AF839006BCEEF0EF24
:203C5500A3F09006BCE0FEA3E0FF30E723900009122CCF9006BEE0FCA3E0FD8C828D83124A
:203C750000E1AC82AD839006BCECF0EDA3F08029C3EE940AEF64809480401E122CC790066A
:203C9500BEE0FEA3E0FF8E828F831200E1AE82AF839006BCEEF0EFA3F09006AAE024ABFFDA
:203CB500E43406FE9006BCE08F828E83F09006B6E0FFBF013A122CC79006AAE0FFBF040083
:203CD50040279006AAE4F090055D74ABF07406A3F0E4A3F09006C075F00012361A90069983
:203CF5007402F0122CC702422D9006AAEF04F09006AAE09005A6F09006AB75F000024684F3
:203D1500744CC0E07473C0E07480C0E0124E1C1581158115810237D57474C0E07473C0E0B8
:203D35007480C0E0124E1C1581158115810237D5900699E075F002A4249AF582740635F0A0
:173D5500F583E0FEA3E0FFC007C0068E828F831200E1D006D007220E
:20715500000000000081811881810007000700147F147F14242A7F2A12231308646236492A
:207175005522500005030000001C2241000041221C0014083E081408083E080800503000D9
:20719500000808080808006060000020100804023E5149453E00427F4000426151494621B4
:2071B50041454B311814127F1027454545393C4A4949300171090503364949493606494912
:2071D500291E00363600000056360000081422410014141414140041221408020151090696
:2071F500324979413E7E1111117E7F494949363E414141227F4141221C7F494949417F09C3
:207215000909013E4149497A7F0808087F00417F41002040413F017F081422417F40404086
:20723500407F020C027F7F0408107F3E4141413E7F090909063E4151215E7F09192946464D
:207255004949493101017F01013F4040403F1F2040201F3F4038403F6314081463070870E3
:2072750008076151494543007F41410002040810200041417F0004020102044040404040DA
:20729500000102040020545454787F484444383844444420384444487F3854545418087E3A
:2072B5000901020C5252523E7F0804047800447D40002040443D007F1028440000417F4089
:2072D500007C041804787C0804047838444444387C14141408081414147C7C0804040848E9
:2072F50054545420043F4440203C4040207C1C2040201C3C4030403C44281028440C5050AA
:20731500503C4464544C44000836410000007F00000041360800100808100800000000008B
:2073350052756E696E672053746570706572204D6F746F72210A0064697374616E636520FB
:20735500636F6E74726F6C2070616765206E6F7420696D706C656D656E746564210A007298
:2073750065616368656420656E636F64657220636F6E74726F6C2070616765206E6F74202F
:0E739500696D706C656D656E746564210A002B
:207BF30000D5374C382E39153D2D3D373BBA3B223C000000000000006340006940005D4011
:127C1300004A330000A72C01000032000000800C000050
:203D6C009000A574B8F07488A3F0E4A3F0A3F09000A9F09000AA04F09000ABE4F0758203ED
:203D8C0002132F900565E0FCA3E0FDA3E0FEA3E08C828D838EF022C0E0C082C083C007C00F
:203DAC0006C005C004C0D075D000900565E0FCA3E0FDA3E0FEA3E0FF90056574012CF0E4CB
:1C3DCC003DA3F0E43EA3F0E43FA3F0D0D0D004D005D006D007D083D082D0E03223
:2073A300000000000081811881810007000700147F147F14242A7F2A1223130864623649DA
:2073C3005522500005030000001C2241000041221C0014083E081408083E08080050300089
:2073E300000808080808006060000020100804023E5149453E00427F400042615149462164
:2074030041454B311814127F1027454545393C4A49493001710905033649494936064949C1
:20742300291E00363600000056360000081422410014141414140041221408020151090645
:20744300324979413E7E1111117E7F494949363E414141227F4141221C7F494949417F0972
:207463000909013E4149497A7F0808087F00417F41002040413F017F081422417F40404036
:20748300407F020C027F7F0408107F3E4141413E7F090909063E4151215E7F0919294646FD
:2074A3004949493101017F01013F4040403F1F2040201F3F4038403F631408146307087093
:2074C30008076151494543007F41410002040810200041417F00040201020440404040408A
:2074E300000102040020545454787F484444383844444420384444487F3854545418087EEA
:207503000901020C5252523E7F0804047800447D40002040443D007F1028440000417F4038
:20752300007C041804787C0804047838444444387C14141408081414147C7C080404084898
:2075430054545420043F4440203C4040207C1C2040201C3C4030403C44281028440C505059
:20756300503C4464544C44000836410000007F00000041360800100808100800000000003B
:203DE80090056A7403F090056B23F090056C7401F090056D04F0900572E4F090057304F00F
:203E0800900574E4F090056E04F090056FF09005707403F09005717401F090057C7403F083
:203E280090057DF090057E7401F090057F04F0900584E4F090058504F0900586E4F0900579
:203E48008004F0900581F09005827403F09005837401F090058E7403F090058F14F090059E
:203E68009014F090059104F0900596E4F090059704F0900598E4F090059204F0900593F039
:203E88009005947403F09005957401F090056A75F00012184490057C75F0001218449005B0
:203EA8008E75F000121844900577E4F0900589F090059BF0900578F0A3F0A3F0A3F0900540
:203EC8008AF0A3F0A3F0A3F090059CF0A3F0A3F0A3F0227F00BF0300400122EF75F003A40C
:203EE80024CBFE740635F0FD8E828D83E0FAA3E0FBA3E0FCC007740D2AF8E43BF98C07889D
:203F08008289838FF012583ED0076003023FAA8A828B838CF0C007C006C005121FDBE58264
:203F2800D005D006D0076003024016C0078E828D83E0FAA3E0FBA3E0FC740E2AF53EE43B80
:203F4800F53F8C40C006C005123D8FA882A983ACF0FFD005D006749028F8740139F9E43C69
:203F6800FCE43FFF853E82853F838540F0E8124BFAA3E9124BFAA3EC124BFAA3EF124BFAE9
:203F88008E828D83E0FBA3E0FCA3E0FF740D2BFBE43CFC8B828C838FF07401124BFAD0071C
:203FA800806CC007C007C006C005123D8F85824185834285F043F544D005D006D0078E8201
:203FC8008D83E0F8A3E0FDA3E0FE740E28FBE43DFC8E078B828C838FF012583EFBA312584E
:203FE8003EFCA312583EFFA312583EFAC3E5419BE5429CE5439FE5449AD0074011740D284E
:20400800F8E43DFD88828D838EF0E4124BFA0F023EDDE5829005A0F0E075F003A424CBF527
:2040280082740635F0F583E0FDA3E0FEA3E0FF740D2DFDE43EFE8D828E838FF012583EFCF1
:20404800BC010F8D828E838FF07402124BFA758201228C822275820202401A758200024048
:074068001A75820102401AE3
:20758300000000000081811881810007000700147F147F14242A7F2A1223130864623649F8
:2075A3005522500005030000001C2241000041221C0014083E081408083E080800503000A7
:2075C300000808080808006060000020100804023E5149453E00427F400042615149462182
:2075E30041454B311814127F1027454545393C4A49493001710905033649494936064949E0
:20760300291E00363600000056360000081422410014141414140041221408020151090663
:20762300324979413E7E1111117E7F494949363E414141227F4141221C7F494949417F0990
:207643000909013E4149497A7F0808087F00417F41002040413F017F081422417F40404054
:20766300407F020C027F7F0408107F3E4141413E7F090909063E4151215E7F09192946461B
:207683004949493101017F01013F4040403F1F2040201F3F4038403F6314081463070870B1
:2076A30008076151494543007F41410002040810200041417F0004020102044040404040A8
:2076C300000102040020545454787F484444383844444420384444487F3854545418087E08
:2076E3000901020C5252523E7F0804047800447D40002040443D007F1028440000417F4057
:20770300007C041804787C0804047838444444387C14141408081414147C7C0804040848B6
:2077230054545420043F4440203C4040207C1C2040201C3C4030403C44281028440C505077
:20774300503C4464544C44000836410000007F000000413608001008081008000000000059
:097C25006A05007C05008E0500D3
:02017D00C203BB
:20406F00122E5A9005397401F0758201122E7090794375F080122F6E9005397402F07582B1
:20408F0001122E7090795175F080122F6E9005397403F0758201122E7090796275F0801233
:2040AF002F6E9005397404F0758201122E7090797275F080122F6E9005397406F075820137
:2040CF00122E7090797F75F080122F6E022E16E5829005A2F09006D4E0FF9005A2E0FEEFE4
:2040EF00B50601229006D4EEF0C006122E5A900539E4F0758201122E7090798E75F0801253
:20410F002F6ED006BE0002800EBE0102804BBE02030241AA0241EB9005397402F075820139
:20412F00122E7090799E75F080122F6E9005397403F0758201122E709079AD75F080122FCC
:20414F006E9005397404F0758201122E709079C075F080122F6E022E169005397402F075B8
:20416F008201122E709079D275F080122F6E9005397403F0758201122E709079E175F080E2
:20418F00122F6E9005397404F0758201122E709079C075F080122F6E022E1690053974029C
:2041AF00F0758201122E709079D275F080122F6E9005397403F0758201122E709079AD75E1
:2041CF00F080122F6E9005397404F0758201122E709079F475F080122F6E803F9005397441
:2041EF0002F0758201122E709079D275F080122F6E9005397403F0758201122E709079AD14
:20420F0075F080122F6E9005397404F0758201122E709079C075F080122F6E022E16122E3A
:20422F005A900539E4F0758201122E70907A0675F080122F6E9005397401F0758201122EBC
:20424F0070907A1875F080122F6E9005397402F0758201122E70907A2E75F080122F6E90F1
:20426F0005397403F0758201122E70907A3A75F080122F6E9005397404F0758201122E702C
:20428F00907A4A75F080122F6E9005397405F0758201122E70907A5275F080122F6E9005C3
:2042AF00397407F0758201122E70907A5C75F080122F6E022E16E5829005A3F09006D5E089
:2042CF00FF9005A3E0FEEFB506030245879006D5EEF0EEFF24FB500302451BEF2F2F904216
:2042EF00F17302430002436C0243D80244440244B09005397402F0758201122E70907A2EA4
:20430F0075F080122F6E9005397403F0758201122E70907A3A75F080122F6E9005397404FF
:20432F00F0758201122E70907A4A75F080122F6E9005397405F0758201122E70907A52753E
:20434F00F080122F6E9005397407F0758201122E70907A5C75F080122F6E024584900539BB
:20436F007402F0758201122E70907A7275F080122F6E9005397403F0758201122E70907A29
:20438F007E75F080122F6E9005397404F0758201122E70907A4A75F080122F6E90053974F4
:2043AF0005F0758201122E70907A5275F080122F6E9005397407F0758201122E70907A5C1A
:2043CF0075F080122F6E0245849005397402F0758201122E70907A7275F080122F6E9005EE
:2043EF00397403F0758201122E70907A3A75F080122F6E9005397404F0758201122E709020
:20440F007A8E75F080122F6E9005397405F0758201122E70907A5275F080122F6E90053954
:20442F007407F0758201122E70907A5C75F080122F6E0245849005397402F0758201122E29
:20444F0070907A7275F080122F6E9005397403F0758201122E70907A3A75F080122F6E9088
:20446F0005397404F0758201122E70907A4A75F080122F6E9005397405F0758201122E7018
:20448F00907A9675F080122F6E9005397407F0758201122E70907A5C75F080122F6E0245B7
:2044AF00849005397402F0758201122E70907A7275F080122F6E9005397403F0758201123E
:2044CF002E70907A3A75F080122F6E9005397404F0758201122E70907A4A75F080122F6E91
:2044EF009005397405F0758201122E70907A5275F080122F6E9005397407F0758201122E6D
:20450F0070907AA075F080122F6E80699005397402F0758201122E70907A7275F080122F77
:20452F006E9005397403F0758201122E70907A3A75F080122F6E9005397404F07582011209
:20454F002E70907A4A75F080122F6E9005397405F0758201122E70907A5275F080122F6EF7
:20456F009005397407F0758201122E70907A5C75F080122F6E122E16123505E433FFA203F4
:20458F00E433B5070122C00774B6C0E0747AC0E07480C0E0124E1C158115811581D007EF5F
:2045AF0024FF92039005397407F0758201C007122E70D007EF600B907ABD75F080122F6E00
:2045CF00801C9005A3E0FFBF040B907AA075F080122F6E8009907A5C75F080122F6E022E5A
:2045EF0016122E5A9005397403F0758201122E70907AD375F080122F6E022E16122E5A903E
:20460F0005397403F0758201122E70907AD375F080122F6E022E16E5829005A4F090053929
:20462F007401F075821F122E709005A4E0600B907AE675F080122F6E8009907AEA75F080D6
:20464F00122F6E022E16E5829005A5F09005397401F0758267122E709005A5E0600B907AF5
:20466F00EE75F080122F6E8009907AF375F080122F6E022E16AFF0AE83E5829005A7F0EEF8
:20468F00A3F0EFA3F0122E5A9005397402F0758201122E70907AF875F080122F6E9005A7AE
:2046AF00E0FDA3E0FEA3E0FF74042DFAE43EFB8F048A828B838CF012583EFA7C0074032D64
:2046CF00F8E43EF98F03888289838BF012583EF888458C4674022DF8E43EF98F038882897B
:2046EF00838BF012583EF888478C4874012DF8E43EF98F03888289838BF012583EF87B0077
:20470F008D828E838FF012583EFD7F00C002C004C045C046C047C048C000C003C005C00718
:20472F007407C0E0747BC0E07480C0E074AAC0E07405C0E0E4C0E0124D72E58124F0F58110
:20474F009005397405F0758201122E709005AA75F000122F6E9005A6E0FF24FB5003024842
:20476F002FEF2F2F904777730247860247A90247CB0247ED02480F7419C0E0747BC0E07459
:20478F0080C0E074AAC0E07405C0E0E4C0E0124D72E58124FAF58102482F7421C0E0747B27
:2047AF00C0E07480C0E074AAC0E07405C0E0E4C0E0124D72E58124FAF5818064742AC0E06E
:2047CF00747BC0E07480C0E074AAC0E07405C0E0E4C0E0124D72E58124FAF5818042743417
:2047EF00C0E0747BC0E07480C0E074AAC0E07405C0E0E4C0E0124D72E58124FAF581802021
:20480F007440C0E0747BC0E07480C0E074AAC0E07405C0E0E4C0E0124D72E58124FAF581EC
:20482F009005397406F0758201122E709005AA75F000122F6E022E16AF83E5829005BEF014
:20484F00EFA3F0122E5A9005397402F0758201122E70907B4D75F080122F6E9005BEE0C072
:20486F00E0A3E0C0E07464C0E0747BC0E07480C0E074C0C0E07405C0E0E4C0E0124D72E564
:20488F008124F8F5819005397405F0758201122E709005C075F000122F6E022E16AF83E551
:2048AF00829005C5F0EFA3F0122E5A9005397402F0758201122E70907B6D75F080122F6E19
:2048CF009005C5E0C0E0A3E0C0E07464C0E0747BC0E07480C0E074C7C0E07405C0E0E4C099
:2048EF00E0124D72E58124F8F5819005397405F0758201122E709005C775F000122F6E02AF
:02490F002E1662
:20776300000000000081811881810007000700147F147F14242A7F2A122313086462364916
:207783005522500005030000001C2241000041221C0014083E081408083E080800503000C5
:2077A300000808080808006060000020100804023E5149453E00427F4000426151494621A0
:2077C30041454B311814127F1027454545393C4A49493001710905033649494936064949FE
:2077E300291E00363600000056360000081422410014141414140041221408020151090682
